S01100005472616E736D6974412E7372656380
S11300000C942A000C9447000C9447000C9447006D
S11300100C9447000C9447000C9447000C94470040
S11300200C9447000C9447000C9447000C94470030
S11300300C9447000C9447000C9447000C94470020
S11300400C9447000C9447000C9447000C94470010
S11300500C94470011241FBECFE5D8E0DEBFCDBF0E
S113006010E0A0E6B0E0E0EBF4E002C005900D92F1
S1130070A237B107D9F720E0A2E7B0E001C01D9292
S1130080AC37B207E1F70E9469000C9456020C9455
S11300900000CF93C82F8A3019F48DE00E944900E4
S11300A05D9BFECFCCB980E090E0CF91089582E0D3
S11300B08BB988E18AB986E880BD8CE089B910BC27
S11300C008955D9BFECF8CB908955F9BFECF8CB1E4
S11300D008958FEF81BB0E94570060E070E089E4CF
S11300E090E00E9497009093750080937400DFEF76
S11300F08C2F0E94610086E690E00E94E2000E943C
S113010065008B7F8B3451F4D2BB2FE78AE196E0F4
S1130110215080409040E1F700C0000012BA87EA05
S113012091E60197F1F700C00000CF5FE1CF0F9394
S11301301F93CF93DF93009731F46115710519F480
S113014080E090E03AC08B01EC016EE070E081E069
S113015090E00E941201FC01892B91F380E88383D3
S11301600115110571F01387028781E8838380915B
S1130170720090917300892B21F4F0937300E09343
S113018072002097C9F0D187C087838182608383FE
S11301908091740090917500892B71F4F09375002F
S11301A0E09374008091760090917700892B21F47C
S11301B0F0937700E0937600CF01DF91CF911F9108
S11301C00F9108950F931F93CF93DF93E0917400E1
S11301D0F0917500238121FF1BC08C01D0E0C0E0A9
S11301E0F80181918F016091740070917500DB01B9
S11301F01896ED91FC911997882331F00995892B74
S113020079F3DFEFCFEFECCF8AE00995892B19F072
S11302108FEF9FEF02C08D2F9C2FDF91CF911F9105
S11302200F9108950F931F93CF93DF93869F8001BF
S1130230879F100D969F100D1124C8010E942E0156
S1130240EC01009729F0A80160E070E00E944F02E1
S1130250CE01DF91CF911F910F9108950F931F93BA
S1130260CF93DF938230910510F482E090E0E09127
S11302707A00F0917B0020E030E0A0E0B0E030971D
S113028019F1408151810281138148175907C8F03F
S11302908417950769F4109731F012960C9312970E
S11302A013961C9327C000937A0010937B0022C0FE
S11302B02115310519F04217530718F49A01BD01AD
S11302C0EF01DF01F801DBCF21153105F9F0281B1F
S11302D0390B2430310580F48A819B8161157105C5
S11302E021F0FB019383828304C090937B0080936D
S11302F07A00FE01329644C0FE01E20FF31F81939F
S1130300919322503109398328833AC0209178008F
S113031030917900232B41F42091620030916300E5
S1130320309379002093780020916000309161002F
S11303302115310541F42DB73EB740916400509129
S11303406500241B350BE0917800F0917900E217E9
S1130350F307A0F42E1B3F0B2817390778F0AC01E4
S11303604E5F5F4F2417350748F04E0F5F1F5093C1
S11303707900409378008193919302C0E0E0F0E02B
S1130380CF01DF91CF911F910F910895CF93DF9308
S1130390009709F481C0FC01329713821282A09164
S11303A07A00B0917B00109781F420813181820F13
S11303B0931F20917800309179002817390751F55F
S11303C0F0937900E093780067C0ED0120E030E01D
S11303D0CE17DF0740F44A815B819E014115510528
S11303E0F1F0EA01F5CFD383C28340815181840FB8
S11303F0951FC817D90759F488819981840F951FCF
S11304000296918380838A819B81938382832115C1
S1130410310529F4F0937B00E0937A003DC0E901B3
S1130420FB83EA8349915991C40FD51FEC17FD074B
S113043061F480819181840F951F0296E90199836B
S11304408883828193819B838A83E0E0F0E0129623
S11304508D919C911397009719F0FD01DC01F7CF62
S11304608D919C9111979D012E5F3F4F820F931F99
S113047020917800309179002817390769F4309772
S113048029F410927B0010927A0002C01382128227
S1130490B0937900A0937800DF91CF910895DC01A7
S11304A001C06D9341505040E0F70895F894FFCF98
S11304B000007C00200041542B524F4C453D310D2F
S10504C0000036
S9030000FC
