:100000000C942A000C9434000C9434000C943400AA
:100010000C9434000C9434000C9434000C94340090
:100020000C9434000C9434000C9434000C94340080
:100030000C9434000C9434000C9434000C94340070
:100040000C9434000C9434000C9434000C94340060
:100050000C94340011241FBECFE5D8E0DEBFCDBF25
:100060000E9436000C94BC000C9400008FB5826C8A
:100070008FBD8EB589618EBD8FE19EE497BD86BD33
:1000800081B38FEF81BB86B597B5845F91409BBDEF
:100090008ABD2FE38DE093E0215080409040E1F74E
:1000A00000C0000086B597B5865B93409BBD8ABDB6
:1000B0002FE38DE093E0215080409040E1F700C0B5
:1000C000000086B597B5885795409BBD8ABD2FE344
:1000D0008DE093E0215080409040E1F700C00000A7
:1000E00086B597B58A5397409BBD8ABD2FE38DE0B7
:1000F00093E0215080409040E1F700C0000086B5B9
:1001000097B58C5F98409BBD8ABD2FE38DE093E04F
:10011000215080409040E1F700C0000086B597B5BF
:100120008A5397409BBD8ABD2FE38DE093E0215019
:1001300080409040E1F700C0000086B597B5885731
:1001400095409BBD8ABD2FE38DE093E02150804018
:100150009040E1F700C0000086B597B5865B9340FC
:100160009BBD8ABD2FE38DE093E0215080409040FD
:0C017000E1F700C0000087CFF894FFCF3B
:00000001FF
